:100000000C9434000C943E000C943E000C943E0082
:100010000C9422010C943E000C943E000C943E0083
:100020000C943E000C943E000C943E000C943E0058
:100030000C943E000C943E000C94F1000C943E0095
:100040000C943E000C943E000C943E000C943E0038
:100050000C943E000C943E000C943E000C943E0028
:100060000C943E000C943E0011241FBECFEFD8E04C
:10007000DEBFCDBF0E9445000C944B010C940000E4
:100080003F065B4F666D7D077F6F08E00EBF0FEF89
:100090000DBF84E05527442799276FE472EC6FD099
:1000A0007ED08AD095D020E430E4789481FD10C0D1
:1000B00080FFFCCF00914D0110914C01011B0431D8
:1000C000A8F306B100FD02C008D0F0CF8E7FEECFBE
:1000D0002A9AC4D02A98C2D0FBCF8E7F8B7F2B9ACE
:1000E0005B34D0F443D0062F3CD00395E0E0F1E040
:1000F000102F1A95AA27E10FFA1FA081AA2391F7C2
:10010000A1E0A083539500934B010AD05B3408F023
:100110008260B5D02B9808958260B1D02B98089555
:10012000BF93BFB7BF93F894B0914B012227BA3069
:1001300018F0BA502395FBCFE0E8F0E0EB0FAA27C8
:10014000FA1F3491E0E8F0E0E20FAA27FA1F2491A9
:10015000B0914B01BA3008F420E0BF91BFBFBF910E
:1001600008950B3410F00B54FCCF0895062F017046
:1001700076956795002311F004EB70270895E0E071
:10018000F1E00BE4112711930A95E9F710934B0165
:1001900010934D0110934C0110934E0108950FEFF1
:1001A0000AB900270BB90FE004B9002705B900E030
:1001B00007B901E008B9089502E004BD03E005BDF8
:1001C00009EF07BD00916E00026000936E00089574
:1001D0000091680002600093680001E000936C00E9
:1001E00008950F930FB70F931F9300914D0103953F
:1001F00000934D01639509F461E000914E01039570
:10020000083020F0002700934E0103C000934E01F8
:1002100014C015B11C7F15B911271BB9442339F43B
:100220002BB915B111601D7F15B941E006C03BB96E
:1002300015B112601E7F15B944271F910F910FBF92
:100240000F9118950F930FB70F9300914D010093E5
:100250004C0181600F910FBF0F911895AF93BF9321
:10026000CF93A8ECB8ECC2E80000CA95E9F7BA95BC
:10027000D1F7AA95B9F7CF91BF91AF910895AF93F8
:10028000BF93A0E5BAEF0000BA95E9F7AA95D1F7B8
:0A029000BF91AF910895F894FFCFDD
:00000001FF
