:020000020000FC
:0200000033C00B
:02001000ABC083
:0200380066C0A0
:1000680008E00EBF0FEF0DBF84E0552744279927FE
:100078006FE472EC12D021D02DD038D020E430E4D7
:10008800789406B101FFF4C081FD20C180FFF9CF4B
:100098008E7FD9D0B0F728D1F4CFE0E0F1E00BE4BF
:1000A800112711930A95E9F710934B0110934D010D
:1000B80010934C0110934E0108950FEF0AB90027D1
:1000C8000BB90FE004B9002705B900E007B903E050
:1000D80008B9089502E004BD03E005BD09EF07BDB6
:1000E80000916E00026000936E0008950091680010
:1000F80002600093680003E000936C0008950F937A
:100108000FB70F931F9300914D01039500934D0175
:10011800639509F461E000914E010395023020F0E7
:10012800002700934E0103C000934E0114C015B17F
:100138001C7F15B911271BB9442339F42BB915B104
:1001480011601D7F15B941E006C03BB915B11260B9
:100158001E7F15B944271F910F910FBF0F91189556
:100168000F930FB70F9300914D0100934C018160DD
:100178000F910FBF0F91189518D0062F11D0039526
:10018800E0E0F1E0102F1A95AA27E10FFA1FA081ED
:10019800AA2391F7A1E0A083539500934B010895FA
:1001A8000B3410F00B54FCCF0895062F0170769590
:1001B8006795002311F004EB702708953F065B4F05
:1001C800666D7D077F6F0000BF93BFB7BF93F8943C
:1001D800B0914B012227BA3018F0BA502395FBCFC3
:1001E800E4ECF1E0EB0FAA27FA1F3491E4ECF1E01C
:1001F800E20FAA27FA1F2491B0914B01BA3008F4F4
:1002080020E0BF91BFBFBF9178940895AF93BF938B
:10021800CF93A8ECB8ECC2E80000CA95E9F7BA9504
:10022800D1F7AA95B9F7CF91BF91AF910895AF9340
:10023800BF93A0E5BAEF0000BA95E9F7AA95D1F700
:10024800BF91AF910895AAE00AD006B100FD04C09D
:10025800AA95D1F708940895AAE0889408958F93F1
:100268009F9380EA9FE00197F1F79F918F910895FE
:10027800A4E1B4E6F4DF06B101FD0AC0BA95D1F7EE
:10028800AA95B9F706B101FFFDCFD1DF0C94340070
:10029800002705B90BB905BD00936E00B7DF02E072
:1002A8000BBB05E003BF78948895C1DF06B101FD5B
:1002B800FBCF06B101FFFDCFBADF002703BF02E085
:1002C80000936E0003E005BD8E7FDBCE00E02A9A26
:1002D80021E730E39BDF2A9827E337E397DF03958D
:1002E8000330A9F70C9434008E7F8B7F2B9A5B34F4
:1002F80040F442DF69DF5C3408F0826098DF2B98B5
:0A0308000895826094DF2B98089599
:00000001FF
